:1000000000000120E12B0000092C00000B2C000057
:100010000D2C00000F2C0000112C0000000000002F
:10002000000000000000000000000000D5060000F5
:10003000152C000000000000F5060000192C00003F
:10004000552200001B2C0000452800001B2C00003E
:100050001B2C00001B2C00001D2300001B2C00008B
:100060001B2C00001B2C00001B2C00001B2C000074
:100070001B2C00001B2C00001B2C00001B2C000064
:100080001B2C0000FD0700001B2C00001B2C000097
:100090001B2C00001B2C00001B2C00001B2C000044
:1000A0001B2C00001B2C00001B2C00001B2C000034
:1000B0001B2C00001B2C00000000000000000000B2
:1000C0001B2C00001B2C00001B2C00001B2C000014
:1000D0001B2C00001B2C00001B2C0000000000004B
:1000E0000000000000000000000000000000000010
:1000F0000000000000000000000000000000000000
:1001000000000000000000000000000000000000EF
:1001100000000000000000000000000000000000DF
:1004000010B5054C237833B9044B13B10448AFF34E
:1004100000800123237010BD740000200000000044
:10042000642F00000C4B43B10C480D4910B5AFF3DD
:1004300000800C48036823B910BD0A48036833B92B
:100440007047094B002BF7D0BDE810401847064B0A
:10045000002BF5D0184700BF00000000642F0000FB
:10046000780000207000002000000000154B002BD9
:1004700008BF134B9D46A3F5803A00218B460F46DB
:100480001348144A121A00F063F80F4B002B00D0E7
:1004900098470E4B002B00D0984700200021040005
:1004A0000D000D48002802D00C48AFF3008000F08A
:1004B0002BF82000290002F04DFB00F011F800BFDE
:1004C0000000080000000120000000000000000003
:1004D00074000020581200200000000000000000FE
:1004E00008B5074B044613B10021AFF30080054B5C
:1004F0001868836A03B19847204600F031F800BFBE
:10050000000000003C2F000070B50D4E0D4CA41BE8
:10051000A4100025A54209D10B4E0C4C02F002FD9F
:10052000A41BA4100025A54205D170BD56F82530A6
:1005300098470135EEE756F8253098470135F2E740
:100540006800002068000020680000206C00002087
:1005500002440346934200D1704703F8011BF9E7B8
:10056000FEE700BF00B585B000230390194601AA3D
:1005700044F20100ADF80430029300F003F805B036
:100580005DF804FBBFF34F8F0549064BCA6802F4C0
:10059000E0621343CB60BFF34F8F00BFFDE700BFA6
:1005A00000ED00E00400FA0572B6024A1368013358
:1005B0001360704790000020034A1368013B1360EA
:1005C00003B962B6704700BF9000002038B54307FA
:1005D00004461CBF20F00704083400F08BFF0E4ACD
:1005E00013689BB10D4A156840F6F7712C448C4294
:1005F00007D8A54205D21D44146001F025F828460D
:1006000038BD002501F020F8284638BD044B23F002
:1006100007031360E6E700BF940000209810002055
:10062000A0000020704700BF00F108034FF0FF3129
:100630000022816080E80C00C3600361704700BF46
:1006400000230361704700BF43684B609A688A606B
:100650009A685160996008610368013303607047CC
:1006600030B40D686B1C11D000F1080200E01A468E
:1006700053681C68A542FAD24B6099608A60516049
:10068000086103680133036030BC70470269536836
:10069000F2E700BF4268816803699160826841683F
:1006A00051605A68904204BF82685A600022026119
:1006B00018680138186070470548006880F308889A
:1006C00062B661B6BFF34F8FBFF36F8F00DF00BF1D
:1006D00000000000064B19680868B0E8F04F80F38E
:1006E0000988BFF36F8F4FF0000080F311887047C7
:1006F000A0100020EFF30980BFF36F8F144B1A682E
:100700001EF0100F08BF20ED108A20E9F04F106096
:100710004DF8043D4FF0200080F31188BFF34F8F58
:10072000BFF36F8F01F0D6F84FF0000080F311880F
:1007300008BC19680868B0E8F04F1EF0100F08BF39
:10074000B0EC108A80F30988BFF36F8F704700BF49
:10075000A0100020202383F31188FEE730B46FF04F
:1007600002034FF08075074C40F8081C40F8202C1D
:1007700040F8045C40F80C4C40F8243C30BC443851
:10078000704700BF550700000F4C08B5E02384F800
:10079000223000F059F80D4B0D4A00211960D4F8B1
:1007A000883043F47003C4F88830536843F0404302
:1007B0005360236943F010032361FFF77DFF20237B
:1007C00083F31188FEE700BF00ED00E09C100020DD
:1007D00030EF00E0202383F31188024A13680133CD
:1007E000136070479C100020034A1368013B13609C
:1007F0000BB983F3118870479C10002000B50F4996
:100800000F4B00220A6083B00968019101991A60B8
:100810001B680093009BEFF31183202383F311885F
:1008200000F07EFE20B1074B4FF080525A6040BF6F
:10083000002383F3118803B05DF804FB001101402D
:100840004011014000ED00E070B5002001F0C4FC53
:10085000084D094B094901222026E0244FF40030BD
:10086000C3F80865C3F804232A601A6081F81143AD
:10087000086070BD081001400010014000E100E078
:1008800070B5054682B072B62A4CD4F8046501F002
:1008900067F900283AD028482849854228BF0546EC
:1008A000721922F07F4201200023C4F80803C4F823
:1008B00040250B600B6800934FF48033009AC4F816
:1008C0000433BFF34F8F25B31D4B20BFD3F8001166
:1008D000D3F804210A43F8D0164A1A494FF480335A
:1008E000C2F808330020D2F8043508600968019185
:1008F0009E424FF001010198C2F8041316D8981BCC
:10090000A84228BF284608B100F002FE62B602B035
:1009100070BD0C4AC4F80833D4F804351560126869
:1009200001929E42019AC4F80403EFD903F1807347
:10093000E5E700BF00100140FDFFFF00401101404E
:1009400000E100E00011014070B506460D4649B3D4
:1009500000FB01F04D30FFF739FE04464C303CB34C
:100960002060E6632564FFF735FF236CE16B2268A6
:10097000A26001FB03F1CB1A134400200A444FF09C
:10098000FF31A063E36061646260A16404F1100060
:10099000FFF74AFE04F12400FFF746FEFFF724FFAD
:1009A000204670BD4C20FFF711FE04460028D7D129
:1009B000002070BD2DE9F047044684B01D46019229
:1009C0008846FFF707FFA26BE36BA04F4FF00009CB
:1009D0009A424E4671D3022D00F0F0800198002813
:1009E00000F05181B9F1000F00F0CE80FFF7FCFE5E
:1009F00000F080FDFFF7EEFE636C013308BF666414
:100A0000A36C013308BFA664FFF7EEFE01A902A89C
:100A100001F070F8002840F0EF80FFF7DBFEA26BDA
:100A2000E36B9A4261D0FFF7DFFEFFF7D3FEA36CC2
:100A3000002B14DD636A93B104F1240907E0A36C71
:100A4000013BA364A36C002B09DD636A3BB14846FC
:100A500000F0F4FF0028F2D001F07CF8EFE74FF04F
:100A6000FF33A364FFF7C0FEFFF7B4FE636C002BF7
:100A700014DD236993B104F1100907E0636C013BB5
:100A80006364636C002B09DD23693BB1484600F0C9
:100A9000D5FF0028F2D001F05DF8EFE74FF0FF330B
:100AA0006364FFF7A1FE00F0CFFDFFF793FEA26B9A
:100AB000E36B9A424FF001098DD2226C002A40F07C
:100AC000E9802568002D63D0A36B626A0133A363BC
:100AD0002AB104F1240000F0B1FF012864D0FFF72F
:100AE00083FE012004B0BDE8F08704F11009FFF790
:100AF0007BFE4846019900F019FFFFF76BFEA36CDF
:100B0000002B14DD636A93B104F1240A07E0A36C9F
:100B1000013BA364A36C002B09DD636A3BB1504623
:100B200000F08CFF0028F2D001F014F8EFE74FF04E
:100B3000FF33A364FFF758FEFFF74CFE636C002BF6
:100B400006DC0FE0636C013B6364636C002B09DD22
:100B500023693BB1484600F071FF0028F2D000F055
:100B6000F9FFEFE74FF0FF336364FFF73DFE00F05E
:100B70006BFD002899D14FF080537B6040BFBFF3DD
:100B80004F8FBFF36F8F90E702A800F0A7FF2DE70C
:100B9000606801F051F8A36B626A65600133A3637A
:100BA000002A96D100289AD0284B4FF080525A60E4
:100BB00040BFBFF34F8FBFF36F8F90E7226C002AC7
:100BC0003FF47FAF4146E06802F0A0F9236CE26891
:100BD00021685B421A448A42E26005D2626813448B
:100BE000E360022D7FF470AFA36B002B3FF46CAF7A
:100BF000A36B013BA36367E7FFF7ECFDA36C002B3E
:100C000014DD636A93B104F1240507E0A36C013B92
:100C1000A364A36C002B09DD636A3BB1284600F096
:100C20000DFF0028F2D000F095FFEFE74FF0FF3303
:100C3000A364FFF7D9FDFFF7CDFD636C002B17DD33
:100C40002369ABB104F110050AE000BF00ED00E03C
:100C5000636C013B6364636C002B09DD23693BB16A
:100C6000284600F0EBFE0028F2D000F073FFEFE71B
:100C70004FF0FF336364FFF7B7FD00F0E5FC0020A1
:100C800004B0BDE8F0870090FFF7AEFD009804B017
:100C9000BDE8F08741466DB9A06802F037F9A36856
:100CA000216C62680B449342A360FFF40DAF23688C
:100CB000A36009E7E06802F029F9236CE268216883
:100CC0005B421A448A42E2608BD287E7F0B5044661
:100CD00083B01646EFF31185202282F31188806BD2
:100CE000E26B90421AD3022B04D0002085F31188C6
:100CF00003B0F0BD226C019312BB2768002F45D0D2
:100D0000A36B0133A363A36C013331D0A36C013314
:100D1000A364012085F3118803B0F0BD226C002A82
:100D2000EBD0002B37D1A06802F0F0F8A368216C5B
:100D300062680B449342A360E2D32368A360DFE7B9
:100D4000E06802F0E3F8216CE2682068019B494208
:100D50000A448242E26004D262681144E160022BDC
:100D6000CED1A36B002BCBD0A36B013BA363C7E712
:100D7000636A002BCDD004F1240000F05FFE002850
:100D8000C7D0002EC5D001203060AFE7606800F00A
:100D900053FF6760B4E7E068019302F0B7F8216C95
:100DA000E2682068019B49420A448242E260D6D24E
:100DB000D2E700BF2DE9F047044684B09A46884642
:100DC0000192FFF707FDA36BA64E00273D46002BBF
:100DD00040F09C800198002800F0F880002F00F07F
:100DE000E180FFF701FD00F085FBFFF7F3FC636C8A
:100DF000013308BF6564A36C013308BFA564FFF726
:100E0000F3FC01A902A800F075FE002840F0E5807F
:100E1000FFF7E0FCA36B0BB3FFF7E6FCFFF7DAFC90
:100E2000A36C002B40F39F80636A002B00F09B8033
:100E300004F124090AE0A36C013BA364A36C002B1A
:100E400040F39180636A002B00F08D80484600F0EB
:100E5000F5FD0028EFD000F07DFEECE7FFF7C4FCC5
:100E60002368002B00F0AA8004F124094846019968
:100E700000F05CFDFFF7AEFCA36C002B06DC0FE07E
:100E8000A36C013BA364A36C002B09DD636A3BB137
:100E9000484600F0D3FD0028F2D000F05BFEEFE7FB
:100EA0004FF0FF33A364FFF79FFCFFF793FC636CE5
:100EB000002B14DD236993B104F1100907E0636C82
:100EC000013B6364636C002B09DD23693BB1484639
:100ED00000F0B4FD0028F2D000F03CFEEFE74FF048
:100EE000FF336364FFF780FC00F0AEFB38B94FF0CE
:100EF0008053736040BFBFF34F8FBFF36F8FFFF717
:100F000069FCA36B0127002B3FF464AF226CE568FA
:100F10004AB16368A9189942E16024BF2168E16081
:100F2000404601F0F3FFBAF1000F40F09D80A36B43
:100F30002268013BA363002A00F0A7802369002BED
:100F400000F0958004F1100000F078FD012840F0D9
:100F50008E80444B4FF080525A6040BFBFF34F8F9A
:100F6000BFF36F8F83E04FF0FF33A364FFF73CFCC8
:100F7000FFF730FC636C002B18DD2369B3B104F17B
:100F8000100907E0636C013B6364636C002B0DDDAB
:100F900023695BB1484600F051FD0028F2D000F013
:100FA000D9FDEFE702A800F099FD1AE74FF0FF33F3
:100FB0006364FFF719FC00F047FBA0E7FFF70AFCAA
:100FC000606800F0EDFDFFF70FFC4DE70090FFF7C4
:100FD0000BFC009804B0BDE8F087FFF7FBFBA36CA7
:100FE000002B14DD636A93B104F1240507E0A36CC0
:100FF000013BA364A36C002B09DD636A3BB1284667
:1010000000F01CFD0028F2D000F0A4FDEFE74FF047
:10101000FF33A364FFF7E8FBFFF7DCFB636C002BF7
:1010200014DD236993B104F1100507E0636C013B03
:101030006364636C002B09DD23693BB1284600F033
:10104000FDFC0028F2D000F085FDEFE74FF0FF3304
:101050006364FFF7C9FB00F0F7FA002004B0BDE8B5
:10106000F08700BF00ED00E0636AE5602BB9FFF791
:10107000BBFB012004B0BDE8F08704F1240000F0C0
:10108000DDFC00287FF465AFF1E700F017FE60603B
:1010900054E700BF074B1A681AB19A6802B170474B
:1010A000012210B403EBC20443F8321060605DF813
:1010B000044BF4E74012002038B504460D46FFF714
:1010C00089FB636C013304BF00236364A36C0133A9
:1010D00004BF0023A364FFF787FBA36B23B9294652
:1010E00004F1240000F06CFCFFF774FBA36C002BF0
:1010F00014DD636A93B104F1240507E0A36C013B9E
:10110000A364A36C002B09DD636A3BB1284600F0A1
:1011100095FC0028F2D000F01DFDEFE74FF0FF3303
:10112000A364FFF761FBFFF755FB636C002B14DD35
:10113000236993B104F1100507E0636C013B63641C
:10114000636C002B09DD23693BB1284600F076FC77
:101150000028F2D000F0FEFCEFE74FF0FF336364AD
:10116000BDE83840FFF740BB2DE9F84F0C9EDDF895
:10117000289082460F4615469B46002E00F091802F
:101180004820FFF723FA0446002800F09580AD00C0
:101190002A460663A5213046FFF7DAF93A78236B31
:1011A00084F83420043D3A781D4425F007053AB10F
:1011B0007B7884F835307B7813B1BB7884F836308F
:1011C0004F46022F28BF02274FF00008261DE76276
:1011D000A763304684F83780C4F83C80FFF730FAC4
:1011E000C7F1030704F11800FFF72AFAC4F840809A
:1011F000A761246184F8448064625A4651462846B7
:10120000FFF7ACFA0B9B206003B11C60FFF7E2FA1A
:101210003F4A404D1368013313602B68002B3AD0CE
:101220003D4F3B6873B3E36ADFF814C1DFF814E1A4
:101230003A48DCF80080012404FA03F203EB83034C
:1012400000EB8300DEF8003042EA08022344314616
:10125000CEF80030CCF80020FFF7F6F9FFF7C4FA1B
:101260003B68ABB12B68DB6A994511D92C4B4FF029
:1012700080525A6040BFBFF34F8FBFF36F8F20463D
:10128000BDE8F88F2B68DB6A994528BF2C60CAE758
:101290002046BDE8F88F2C601368012B13D01E4F39
:1012A000C1E79000FFF792F9064600287FF468AF87
:1012B0004FF0FF30BDE8F88F3046FFF7B3F94FF03D
:1012C000FF30BDE8F88F1548DFF87CA0DFF87C80A0
:1012D000114FFFF7A9F91348FFF7A6F91248FFF7D6
:1012E000A3F95046FFF7A0F94046FFF79DF90F48D4
:1012F000FFF79AF90E48FFF797F90E48FFF794F9B0
:101300000D4A0E4BC2F800A0C3F800808BE700BF67
:10131000E8100020A010002044110020AC10002094
:1013200000ED00E0C0100020D4100020301100209B
:101330005C11002048110020A4100020A8100020FB
:10134000FC100020F41000200011002014110020D7
:101350002DE9F843F020FFF739F9002875D005464C
:101360004820FFF733F90446002876D00563F022C1
:101370002846A521FFF7ECF8206B4C4E00254921AB
:1013800044224C23271D84F8341084F8352084F837
:10139000363000F1EC0884F837503846E562A56332
:1013A000E563FFF74DF904F11800FFF749F928F05C
:1013B000070803232A462564A3613D4984F8445065
:1013C000404624616462FFF7C9F93A4B20601C6013
:1013D000FFF700FA384A1368013313603368002BB3
:1013E00035D0364D2B681BB93368DB6A03B93460DE
:1013F000E26ADFF8F0C0DFF8F0E03148DCF80040E6
:101400000123934002EB820200EB8200DEF8002011
:10141000234301323946CCF80030CEF80020FFF7E4
:1014200013F9FFF7E1F92B6803B1336800F052FCC0
:1014300001280AD1202383F31188224B286000223F
:101440001A60BDE8F843FFF79FB9BDE8F883346040
:101450001368012B06D0194DCAE72846BDE8F843AA
:10146000FFF7E0B81648DFF88490DFF88480134D6A
:10147000FFF7DAF81448FFF7D7F81448FFF7D4F865
:101480004846FFF7D1F84046FFF7CEF81048FFF77F
:10149000CBF81048FFF7C8F80F48FFF7C5F80F4A18
:1014A0000F4BC2F80090C3F80080A1E7A010002005
:1014B000E117000028110020E8100020441100204E
:1014C000AC10002070110020C0100020D4100020AB
:1014D000301100205C11002048110020A4100020D1
:1014E000A8100020FC100020F410002000110020A3
:1014F00014110020024A136801331360704700BFC3
:10150000F0100020014B1868704700BF70110020D8
:10151000024A136818441060704700BF7011002021
:101520002DE9F04F3D4B1B6883B0002B43D13C4B62
:101530001A6801321A60D3F80080B8F1000F48D061
:10154000384B01931B6898455AD3374E374FDFF815
:10155000F0A0DFF8F090002524E03368DB68DC6859
:10156000636804F1040B9845584654D3FFF792F88A
:10157000A36A04F118000BB1FFF78CF8E06A3A682F
:101580000123834000EB8000134359460AEB80009F
:101590003B60FFF759F8D9F80030E26ADB6A9A42FB
:1015A00028BF012533681B68002BD6D1019A4FF064
:1015B000FF33136004E01E4A1368013313600025F3
:1015C0001C4B1B68002B18BF0125284603B0BDE843
:1015D000F08F154E184B3168184A18683060196042
:1015E00013680133136033681B685BB90D4B0193BB
:1015F0001A464FF0FF33136013461B689845A4D278
:101600000025DDE73368074ADB680192DB685B6829
:101610001360134696E7019A1360D1E7F01000209B
:101620007011002060000020A4100020FC10002099
:10163000EC10002074110020A81000202C110020B4
:10164000AC100020A01000202DE9F84FFFF7C2F8E1
:10165000324B1A68013A1A601B68002B49D1304B93
:101660001B68002B45D0DFF8CC90DFF8CCB02D4DB7
:10167000DFF8C8802C4F012622E0DBF80C30D3F8CD
:101680000CA00AF104040AF11800FFF703F8204641
:10169000FFF700F8DAF82C002A6806FA00F300EBEE
:1016A00080001343214608EB80002B60FEF7CCFF3F
:1016B0003B68DAF82C20DB6A9A4228BFC9F8006040
:1016C000DBF80030002BD8D1184C23686BB12368AD
:1016D0005BB10125FFF724FF08B1C9F8005023686A
:1016E000013B23602368002BF4D1D9F80040012C82
:1016F00005D00024FFF778F82046BDE8F88F0C4BA2
:101700004FF080525A6040BFBFF34F8FBFF36F8FCF
:10171000FFF76AF82046BDE8F88F00BFF010002000
:10172000E8100020FC100020A0100020EC10002089
:1017300000ED00E07411002030110020AC100020FA
:1017400070B548B91E4B4FF080525A6040BFBFF38E
:101750004F8FBFF36F8F70BD1A4A1B4E13681B4D1E
:101760000133136004463368286804301C44FEF7D4
:1017700091FF40B92B681649D86A0B680122824054
:1017800023EA02030B602A68336854609C420FD33B
:10179000104B186829680431FEF762FF0E4B1A6877
:1017A000944238BF1C60FFF74FFF0028CAD070BDBD
:1017B0000A4B186829680431FEF752FFF3E700BFAF
:1017C00000ED00E0F010002070110020A0100020BB
:1017D000FC100020A410002060000020A8100020B1
:1017E0002DE9F84F324C334E334DDFF8DC80DFF813
:1017F000DC90DFF8DCB007E0236837680133236052
:10180000FFF722FF002F32D12B68002BF4D1D8F83C
:101810000030012B45D9294B4FF080525A6040BF10
:10182000BFF34F8FBFF36F8FD9F80030DB6A002B07
:10183000EAD1D8F80030012BE6D8214ADBF8003095
:1018400012689B1A012BDFD9236801332360D9F872
:101850000030DB6A43B91A4BDBF800001B68C01A82
:10186000012801D9FFF70CF8FFF7EEFECCE7FEF7F1
:10187000B1FFF368D3F80CA00AF10400FEF70AFFE9
:10188000104B1A68013A1A602A68013A2A60FEF77A
:10189000ABFFDAF83000FEF7C5FE5046FEF7C2FE99
:1018A000B2E7D9F80030DB6A002BC6D0ACE700BF46
:1018B000F01000205C110020F810002000ED00E086
:1018C00070110020E8100020AC100020A0100020B3
:1018D00060000020104B1B68CBB91049104A0B6008
:1018E0001368104AB3FA83F3C3F11F0303EB8303B6
:1018F0009B00D018083341684968416013449942FD
:1019000004BF49684160084BCA681A607047034BBE
:1019100001221A60704700BFF010002074110020EF
:10192000FC100020AC100020A010002038B51D4D88
:101930002B680C4603F11801FEF792FE286804306C
:10194000FEF7A8FE40B92B681749D86A0B68012238
:10195000824023EA02030B60631C1BD0134B1968FF
:101960002A681B680C449C4254600BD3104B1868C7
:1019700029680431FEF774FE0E4B1A68944238BF92
:101980001C6038BD0C4B18682968BDE8384004312C
:10199000FEF766BE296809480431BDE83840FEF705
:1019A00053BE00BFA0100020FC10002070110020CA
:1019B000A410002060000020A81000204811002082
:1019C00070B5184D2B680E4603F11801FEF73CFE6A
:1019D00028680430FEF75EFE40B92B681249D86AC9
:1019E0000B680122824023EA02030B600F4B1C6844
:1019F0002A681B6834449C4254600BD30C4B186813
:101A000029680431FEF72CFE0A4B1A68944238BF4D
:101A10001C6070BD084B18682968BDE8704004312F
:101A2000FEF71EBEA0100020FC1000207011002048
:101A3000A410002060000020A8100020F8B5C368A2
:101A4000DC6804F118052846FEF724FE1B4B1B68D2
:101A5000002B2DD1261D1A4D3046FEF71BFEE26AE3
:101A60002F6818480123934002EB82023B43314622
:101A700000EB82002B60FEF7E7FD134BE26A1B6868
:101A8000DB6A9A4282BF114B01201860104B1A6822
:101A9000126898BF002032B11A680E4BD268D26823
:101AA00052681A60F8BD0B4B4FF0FF321A60F8BD58
:101AB00029460948FEF7C8FDDFE700BFF010002007
:101AC000FC100020AC100020A01000207411002099
:101AD000A41000206000002030110020034A044BB5
:101AE00012681B6880E80C00704700BF2C110020B2
:101AF00070110020F8B50D460446FEF76BFE2B680A
:101B00001249581C0A681BD0114E2768306887425A
:101B1000606801D082420ED2171ABB420BD99B1AC1
:101B2000034430680A682B6084E805000025FEF74E
:101B30005BFE2846F8BD0125FEF756FE2846F8BD97
:101B40000025FEF751FE2846F8BD00BF70110020A9
:101B50002C110020014B01221A60704774110020E3
:101B6000054B1B682BB9054B1868B0FA80F040098B
:101B700070470020704700BF301100207411002012
:101B8000054B1B6833B1054B1B68002B0CBF0220B3
:101B9000002070470120704744110020F010002001
:101BA000002841D0F8B5214CC36A2268D26A93421A
:101BB00012D28269002A04DB2268D26AC2F10302CF
:101BC00082611B4D426903EB830305EB83039A4259
:101BD00003D02368DB6AC362F8BD071D064638469A
:101BE000FEF758FDF0B9F36A03EB830255F82220A3
:101BF000C2B9104A0120116800FA03F321EA030375
:101C0000136023681468D86AF06201238340234379
:101C100000EB80001360394605EB8000BDE8F8401A
:101C2000FEF712BD034AECE7704700BFA01000208A
:101C3000AC100020FC100020002839D0F8B5C36B90
:101C4000C16A826B013B9142C36300D00BB100209B
:101C5000F8BD071D04463846FEF71CFD78B9E36A57
:101C60001448154E03EB830250F822204AB932681B
:101C7000012101FA03F322EA0303336001E00D4876
:101C80000D4EA36BD6F800C0E3620125C3F1030E2D
:101C900005FA03F203EB830342EA0C0200EB830034
:101CA0003946C4F818E03260FEF7CEFC2846F8BD8D
:101CB00000207047AC100020FC100020044B1A6874
:101CC0001AB11968CA6B0132CA631868704700BF3D
:101CD000A0100020F0B5184C85B0FEF77BFD2568FC
:101CE0008DB1FEF781FD206858B1002313490191A1
:101CF0000222009203930293502211491148FFF7E8
:101D000033FA05B0F0BD104F104E3846FEF78CFC8C
:101D10003046FEF789FC0E4A0E4B176010212A460A
:101D200020201E60FEF710FE20600028D9D00A494E
:101D3000FFF7B0F9D5E700BFAC110020B0110020CB
:101D4000482F00005D1E000080110020941100202B
:101D5000781100207C110020402F00002DE9F04F69
:101D600083B0F9B1064628200D4698461746FEF77F
:101D70002DFC0446B0B1DFF88090FEF72BFDD9F8BA
:101D80000020A2B1FEF730FD0C9B2660201DA5614E
:101D9000E761C4F820806362FEF752FC204603B07E
:101DA000BDE8F08F0024204603B0BDE8F08FDFF8D7
:101DB0004CB0DFF84CA001925846FEF735FC504677
:101DC000FEF732FC09490A4BC1F800B0019AC3F88A
:101DD00000A010212020FEF7B7FDC9F80000002860
:101DE000D0D00449FFF756F9CCE700BF78110020A6
:101DF0007C110020402F0000AC1100208011002039
:101E00009411002030B5144D2C6885B004B3052919
:101E10008DE8060002900BDCFFF7B2FE02280FD01F
:101E2000002328681A466946FEF7C4FD05B030BD98
:101E30001A46204600236946FEF748FF05B030BD2C
:101E40002868089A00236946FEF7B4FD05B030BD46
:101E5000204605B030BD00BFAC1100202DE9F04F89
:101E6000A54EDFF8A482A54D8BB033681C68002C0A
:101E700000F08C80DB681C68FFF73CFBFFF742FB3F
:101E8000D8F800308342074651D88442C8F8000091
:101E900040F29E80E11B2868FFF70EF9FFF7D4FBA4
:101EA00040B9974B4FF080525A6040BFBFF34F8FFD
:101EB000BFF36F8F00231A4602A92868FEF77AFF46
:101EC0000028D2D0029B002B58DB049C636913B11D
:101ED000201DFEF7DFFBFFF715FBD8F80030984216
:101EE000814641D3029BC8F80090092BE2D8012219
:101EF00002FA03F313F4047F40F0CA8013F0C70F13
:101F000040F0AA809B06D5D52046FEF78BFBD1E793
:101F1000DB68DC68D3F800A004F104094846FEF74A
:101F2000B9FB636A20469847E369012B3AD03368CE
:101F30001A68002AECD1734AC8F80070126832603F
:101F4000704A1360FFF780FBB4E7DB68DF68D3F803
:101F500000B007F1040A5046FEF79CFB7B6A384646
:101F60009847FB69012B28D033681A68002AECD106
:101F7000644A12683260634A1360B3E7039B0599B1
:101F800004989847029B002B94DB9EE7FFF7B2FA78
:101F9000FFF7B8FAD8F8003083420746C7D8C8F828
:101FA000007077E7A36953449A45494624D2636099
:101FB00024613068FEF754FBB9E7BB695B449B457D
:101FC00051462AD27B603F613068FEF749FBCBE780
:101FD000FFF73AFB3368DB68D3F80C9009F1040A89
:101FE0005046FEF757FBD9F81C30012B26D0D9F804
:101FF0002430484698475DE72B68002B97D0002394
:102000000693CDF81CA00894FFF7BAFD00231A46EA
:1020100006A92868FEF7CEFC89E72B68002BA3D021
:1020200000230693CDF81CB00897FFF7A9FD002305
:102030001A4606A92868FEF7BDFC95E7D9F81830BE
:10204000C9F81090E218BA42C9F8042031D95146B3
:102050003068FEF705FBCAE7039BA16924615A18A3
:102060004A45626039D8A9EB030399421BD8636AD9
:1020700020469847E369012B7FF41CAF0399A269BE
:1020800000230A44009320461946FFF7BBFE11E7E0
:10209000039B246103EB09024A45A361626020D8D7
:1020A000002B3FF407AF174B211D1868FEF7D8FA35
:1020B00000E73F1BBB4219D82B68002B97D00023A9
:1020C00006930794CDF82090FFF75AFD00231A4697
:1020D00006A92868FEF76EFC89E74B4501D99342B3
:1020E000C5D9211D3068FEF7BBFAE3E6054B514622
:1020F0001868FEF7B5FA7AE778110020AC110020D5
:1021000000ED00E07C110020A81100204FF0A0435A
:1021100010B44FF480204FF400344FF400214FF4FA
:102120008012C3F80845C3F80805C3F80815C3F8BA
:1021300008255DF8044B7047074B4FF0A041185C31
:10214000D1F804350122824022EA03001340C1F88D
:102150000805C1F80C357047502F000030B44FF01F
:10216000A04303224FF400354FF480244FF40020A5
:102170004FF48011C3F84427C3F84827C3F84C270D
:10218000C3F85027C3F80855C3F80845C3F8080535
:10219000C3F8081530BC704710B50D4C23780BB14F
:1021A000852010BD0B4A6360E3601068A36010F0E7
:1021B0000100236107D04FF080420123C2F8183597
:1021C0002370002010BD072100F080F8F3E700BF66
:1021D000B411002000E100E030B51B4DAB7883B0B6
:1021E000044673B110B14368012098470020FEF700
:1021F000DBF9EB6800200133EB60FEF7DDF903B09B
:1022000030BD03F0FF00FEF7CFF964B12A6942B197
:10221000944208D0134601E09C4204D01B68002B76
:10222000FAD122602C61EB68002BE2D1074A084901
:102230001360136801934FF0804202200123019C38
:10224000C2F804030B60D4E7B4110020040100407D
:102250000800004010B51A4B1A6882B0A2B10022E3
:102260001A601B6800934FF080430122154C0099BF
:10227000C3F80823A368627033B10CCB0020A260BE
:102280009847A368002BF8D10F4B1A68AAB1002217
:102290001A601B6801934FF080430222094C019998
:1022A000C3F8082323690122A27033B10CCB0120AB
:1022B000226198472369002BF8D102B010BD00BFFE
:1022C00000010040B411002004010040002810B4B7
:1022D00018DB00F1604303F561434901C9B283F89B
:1022E0000013C3B24009800000F1604000F5614076
:1022F00003F01F0201239340C0F8803103605DF8B2
:10230000044B7047C3B2044A03F00F04490122444E
:10231000C9B21176E6E700BFFCEC00E02DE9F04F12
:1023200087B00023CC4A01931168012900F00A828A
:102330001E46CA4B1A68012A00F0F681C84B1A687B
:10234000012A00F0E381C74B1A68012A00F0D0810E
:10235000C54B1A68012A00F0BD81C44B1A68012AD6
:1023600000F0AA81C24B1A68012A00F09781C14B84
:102370001A68012A00F08481BF4B1A68012A00F014
:102380005E8116F0FF0F1AD0BC4F01250024A30078
:1023900003F180432E4203F5C0434FEA45050BD0BD
:1023A000D3F8100557F82420D3F81015C0F30420F3
:1023B000C1F3014102B190470134082CE7D1002E4E
:1023C00002DB07B0BDE8F08F00224FF0FF33AB4CCB
:1023D00002920393012502AE94F950104F1C2DD0A8
:1023E000C9B221F0C00006AB4FEAD00E03EB0E07D6
:1023F00001F0070317F80C2C05FA03F31A421DD05D
:102400002218890992F9302054F82220002A00F07D
:10241000F080032900F0F0804FEA800E0EF1A04E0C
:1024200017F814CCDEF800771CEA0303C7F3014960
:1024300040F0B880B9F1030F00F0D7814FF0030AE4
:102440004FF002094FF00108002794F95110481C81
:102450002DD0C9B221F0C00006AB4FEAD00C03EB7F
:102460000C0E01F007031EF80C2C05FA03F31A42B8
:102470001DD02218890992F9302054F82220002A10
:1024800000F0CA80032900F0CA804FEA800C0CF1EA
:10249000A04C1EF814BCDCF800E71BEA030FCEF3D7
:1024A000014E40F09080BEF1030F00F08A8194F954
:1024B00052104A1C2CD0C9B221F0C00006AB4FEA22
:1024C000D00C03EB0C0E01F007031EF80C2C05FAE0
:1024D00003F31A421CD02218890992F9302054F8CB
:1024E0002220002A00F08F80032900F08E804FEA1E
:1024F000800C0CF1A04C1EF814ACDCF800E71AEAD2
:10250000030FCEF3014E6AD1BEF1030F00F04681F6
:1025100094F953104B1C2CD0C9B221F0C00006AB6B
:102520004FEAD00E03EB0E0201F0070312F80CCCB9
:1025300005FA03F31CEA030F1BD004EB000C890916
:102540009CF930C054F82C90B9F1000F6ED00329DB
:102550006ED04FEA800E0EF1A04E12F814CCDEF8C9
:1025600000271CEA030FC2F3014211D1032A00F035
:10257000F580002F3FF425AF4FF0A043019AD3F828
:1025800010359A423FF41DAF029A0193039223E75C
:10259000022AEED1032900F04681B9F1000FE8D0FC
:1025A000C847E6E7B9F1020F7FF448AF032900F00E
:1025B00043814FF0030A4FF001080027002A3FF43F
:1025C00044AF904741E7BEF1020F7FF470AF03299B
:1025D00000F02C81002A3FF46AAF904767E7BEF114
:1025E000020F95D1032900F02481002A90D0904752
:1025F0008EE703297FF422AF16F80EC04CEA030CD5
:1026000006F80EC008E7032982D116F80CA04AEAA2
:10261000030A06F80CA06AE703297FF448AF16F80E
:102620000CB04BEA030B06F80CB02EE70329A0D13F
:1026300016F80EC04CEA030C06F80EC089E700221B
:102640001A601B6805934FF0A043059AD3F8103524
:10265000019346F0004694E60061004004610040AA
:10266000086100400C6100401061004014610040AE
:10267000186100401C6100407C610040C8110020CE
:102680006F4AD2F8042312067FF576AE00221A6054
:102690001B680493049B46F080066DE6684AD2F8F6
:1026A000042351067FF563AE00221A601B68049371
:1026B000049B46F040065AE6614AD2F8042390068D
:1026C0007FF550AE00221A601B680493049B46F00D
:1026D000200647E65A4AD2F80423D4067FF53DAED9
:1026E00000221A601B680493049B46F0100634E62F
:1026F000534AD2F8042315077FF52AAE00221A6048
:102700001B680493049B46F0080621E64C4AD2F865
:10271000042357077FF517AE00221A601B68049345
:10272000049B46F004060EE6454AD2F804239207BD
:102730007FF504AE00221A601B680493049B46F0E8
:102740000206FBE53E49D1F8046316F001063FF4AA
:10275000F0AD136013680493049BEAE503297FF44A
:102760001CAF4FF40032DEF8003723F44033CEF8CC
:102770000037DEF800371343CEF80037B9F1000F09
:1027800001D047460CE74FF0A043019AD3F810352B
:1027900093427FF4F9AE07B0BDE8F08F03297FF4D0
:1027A00024AF4FF40037DCF8003723F44033CCF883
:1027B0000037DCF800373B43CCF800374746C846C3
:1027C00013E703297FF406AF4FF40037DCF8003736
:1027D00023F44033CCF80037DCF800373B43CCF827
:1027E00000374746C846D146F4E6032906D0CA4614
:1027F0001F464FF002094FF00108DFE64FF40037A3
:10280000DEF8003723F44033CEF80037DEF8003727
:102810003B43CEF800374FF0040A4FF003094FF066
:1028200002080127CAE64FF440329CE74FF44037D4
:10283000CCE74FF44037B6E74FF44037E0E700BF4E
:102840000060004070B5A54C237F8EB0002B73D183
:10285000A34AD2F80413890546D4A14BD3F8042324
:10286000520704D5D3F80821002A40F0C9809C4BB8
:10287000D3F81C21BAB1A28AA17D92B28A424FF04C
:102880000002C3F81C2180F0A880D3F81C21069216
:10289000069AA18AA28AA06889B20132415C92B2EA
:1028A000A282C3F81C158E4BD3F84421D2B100226A
:1028B000C3F84421D3F84411A27E04910499002A5C
:1028C00040F08880E37D6BB10023617EE268E375B0
:1028D00001238DF830108DF828300B9294E80A000F
:1028E0000AA898470EB070BDD2F824110029B4D0C0
:1028F000C2F82431D2F82411A37E07914FF401715C
:102900000798C2F808130BB901235360744A0223D5
:102910008DF82830D2F88034C2F88034E07DE26847
:102920000D9300238DF83000E375237621680B9218
:1029300063680AA898479AE7694BD3F82421002ACC
:1029400040F09280D3F8101161B1C3F81021D3F890
:10295000101103910399D3F83C15E07DC9B2884268
:1029600000F0A4805E4BD3F84421B2B10022C3F83A
:102970004421D3F84401E17D0190019869B1D3F875
:102980003C35E1688DF8303001230B918DF828300B
:10299000E27594E80A000AA89847514BD3F8202121
:1029A000002A9FD00022C3F82021D3F82001A17D66
:1029B00000900098002995D0D3F84C15A3688DF8A5
:1029C00030100B938DF82820A27594E80A000AA80D
:1029D000984787E701221A6074E7D3F81C31059302
:1029E000059B00293FF45FAFA3688DF830100B936F
:1029F0008DF82820A27594E80A000AA8984752E7A3
:102A0000E27D002A6ED00022C3F80821D3F8082105
:102A10000892089AE168627ED3F818358B54637E79
:102A2000E27D0133DBB26376637E93427FF41FAFB6
:102A3000237E002B6CD1A37E13B9294B01225A604F
:102A4000274AE06863684FF40171C2F80813627E98
:102A50008DF83020002501220B902168E5758DF856
:102A600028200AA8984702E70022C3F82421D3F8B7
:102A70002411029102218DF828100299D3F88014B4
:102A8000C3F880140D91D3F83C15E368E275227603
:102A90008DF830100B93216863680AA89847104B93
:102AA000D3F84421002A3FF478AF5FE7217E11B3C9
:102AB000D3F80062E568E17526F02006C3F80062ED
:102AC00026698DF8300001238DF8283022762168A0
:102AD0000B95E66063680AA8984743E72012002038
:102AE00000200040C3F80821D3F808110991099982
:102AF000D3F8183598E7E268E17501238DF83000C6
:102B00008DF828300B9294E80A000AA8984729E724
:102B1000607EE5682169E375012200238DF83000AD
:102B2000E160237663760B958DF8282094E80A00FF
:102B30000AA898479BE600BF0120FFF7FDBA00BF37
:102B400008B50020FFF7F8FA4FF4C870FEF7F8FD5B
:102B5000F7E700BF30B585B0FFF71EFB70BB002460
:102B6000FFF7FCFAFFF7D2FA164901910222234639
:102B70000092154903944FF4827202941348FEF7B1
:102B8000F3FA134B009301224FF4FA7123461148D4
:102B9000FFF7E4F8104B05461860FEF7B3FC234638
:102BA0000246009428460121FFF72CF90B4A1369CD
:102BB00043F004031361FEF7CBFBFEE7FDF7D2FC05
:102BC000CDE700BF54120020542F0000412B00001D
:102BD000392B00005C2F00005012002000ED00E0B7
:102BE0000649074A074B9B1A03DD043BC858D050DF
:102BF000FBDC00F013F8FDF739FC0000702F00003B
:102C00000000002074000020FEE7FEE7FEE7FEE77C
:102C1000FEE7FEE7FEE7FEE7FEE7FEE7F0B4A64BC1
:102C20001B78062B1BD0A54AD2F8883043F47003DA
:102C3000C2F88830BFF34F8FBFF36F8F4FF0102370
:102C4000D3F80022002AC0F20581D3F80432002B09
:102C5000C0F200819A4B9B4A1A60F0BC70479A4BB5
:102C60001B681E07DFD1994B1B6803F0F003302B64
:102C700002D1974B974A1A60944B1B6803F0F002FD
:102C8000302A00F0D68003F0E003402B00F0D18022
:102C90008E4B1B6803F0F003302B00F0BB808B4B96
:102CA0001B6803F0F002302A00F0A08003F0E0037C
:102CB000402B00F09B80854B1B6803F0F003302B0A
:102CC00000F08680814B1B6803F0F003302B68D046
:102CD0007E4B1B6803F0F003502B10D07B4B1B681E
:102CE00003F0F002302A03D003F0E003402B9AD126
:102CF000794B7A4A1B6803F04F03136093E74FF058
:102D00008052774BD2F80414C3F82015D2F8081477
:102D1000C3F82415D2F80C14C3F82815D2F81014EF
:102D2000C3F82C15D2F81414C3F83015D2F81814BF
:102D3000C3F83415D2F81C14C3F84015D2F8201487
:102D4000C3F84415D2F82414C3F84815D2F828144F
:102D5000C3F84C15D2F82C14C3F85015D2F830141F
:102D6000C3F85415D2F83414C3F86015D2F83814E7
:102D7000C3F86415D2F83C14C3F86815D2F84014AF
:102D8000C3F86C15D2F844244B49C3F870250A786F
:102D9000062A7FF448AF4C4B1B681B077FF443AFF8
:102DA0009CE7454B4F491B784F4D5048504A0527EB
:102DB0000F60012600243F21062B2E600460116065
:102DC0007FF431AF404B1B681A077FF42CAF7FE7CD
:102DD000394B484A1B780321062B11607FF423AF3F
:102DE000394B1B6819077FF41EAF6BE7324B1B781A
:102DF0004FF080420021062BC2F80C11C2F81011CE
:102E0000C2F838157FF40FAF2F4B1B6818077FF4FB
:102E10000AAF50E73849284ACB68127823F080730C
:102E2000062ACB60B4D1284B1B681C077FF4FBAE8D
:102E300035E7324A204B12681B783149C2F34232DF
:102E4000062B0A607FF4EFAE1F4B1B681D077FF453
:102E5000EAAE1DE72B4B0122C3F80425D3F800246A
:102E6000002AFBD04FF0102315222649C3F8002278
:102E7000D1F80034002BFBD04FF010221521214B4C
:102E8000C2F80412D3F80024002AFBD000221D4906
:102E9000C3F80425D1F80034002BFBD0BFF34F8FCB
:102EA0000649194BCA6802F4E0621343CB60BFF3D2
:102EB0004F8F00BFFDE700BFE00F00F000ED00E026
:102EC000640000200090D003E40F00F0E80F00F051
:102ED00074C007400DF0ADBA58020010E40E004077
:102EE00000C0004010560040885600401856004070
:102EF00014560040A0050040F0ED00E04402001030
:102F00003C05004000E001400400FA0510B5431EF6
:102F10000A44914200D110BD11F8014B03F8014F52
:102F2000F7E70000F8B500BFF8BC08BC9E46704744
:102F3000F8B500BFF8BC08BC9E46704700000020F2
:102F4000546D725100000000546D7220537663007E
:102F5000111213144C454430000000004C4544311C
:082F6000000000000000000069
:082F680004D5FF7F0100000009
:102F70000000000000000000000000000000000051
:102F80000000000000000000000000000000000041
:102F90000000000000000000000000000000000031
:102FA0000000000000000000000000000000000021
:102FB0000000000000000000000000000000000011
:102FC0000000000000000000000000000000000001
:102FD000FFFFFFFF0090D003250400000104000064
:042FE00000000000ED
:0400000300002BE1ED
:00000001FF
