:1000000000800020CD2600000D2700000F270000F3
:1000100000000000000000000000000000000000E0
:100020000000000000000000000000009903000034
:1000300000000000000000009D03000015270000E4
:100040002D1F0000172700008D2400001727000037
:1000500017270000000000002120000017270000E3
:100060001727000017270000172700001727000098
:100070001727000017270000172700001727000088
:10008000172700009504000017270000172700001D
:100090001727000017270000172700001727000068
:1000A00017270000172700000000000000000000D4
:1000B0000000000000000000000000000000000040
:1000C00010B5064C2378002B07D1054B002B02D02E
:1000D000044800E000BF0123237010BD7000002021
:1000E0000000000050280000084B10B5002B03D082
:1000F0000749084800E000BF07480368002B00D10B
:1001000010BD064B002BFBD09847F9E7000000001C
:1001100074000020502800006C0000200000000047
:10012000164B002B00D1144B9D46402292029A1A86
:10013000924600218B460F461348144A121A00F0CB
:1001400065F80F4B002B00D098470E4B002B00D0CA
:1001500098470020002104000D000D48002802D01F
:100160000C4800E000BF00F02DF82000290002F04C
:1001700067FA00F011F8C046000008000080002077
:10018000000000000000000070000020401200206D
:100190000000000000000000084B10B50400002B18
:1001A00002D0002100E000BF054B1868836A002BD5
:1001B00000D09847200000F031F8C0460000000051
:1001C0002828000070B500260C4D0D4C641BA410AF
:1001D000A64209D1002602F01BFB0A4D0A4C641B03
:1001E000A410A64205D170BDB300EB589847013664
:1001F000EEE7B300EB5898470136F2E764000020C1
:1002000064000020640000206800002003008218C1
:10021000934200D1704719700133F9E7FEE7C046F9
:10022000002300B585B001AA906000210348138027
:10023000536000F005F805B000BDC0460140000065
:10024000BFF34F8F034A044BDA60BFF34F8FC046B2
:10025000FDE7C0460400FA0500ED00E072B6024A70
:1002600013680133136070478C000020034A136841
:10027000013B1360002B00D162B670478C00002058
:10028000072370B50400034201D09C43083400F0FA
:10029000D7FF0D4A1368002B0FD00C4A0C49156884
:1002A00064198C4207D8A54205D25D19146001F08B
:1002B00079F8280070BD0025F9E70721054B0833C0
:1002C0008B431360E9E7C0469000002094100020A3
:1002D000F70F0000940000207047C0460300012281
:1002E00008334360C36003610023524282600360AD
:1002F0007047C046002303617047C04643684B60A7
:100300009A688A609A68516099600861036801334D
:1003100003607047020030B50C680832631C01D1DD
:100320000DE01A0053681D68AC42FAD24B60996028
:100330008A605160086103680133036030BD02695F
:100340005368F3E742688168036991608268416895
:1003500051605A68904205D0002202611A68501E0E
:100360001860704782685A60F6E7C046084800681F
:1003700080F30888074B19680868203080F30988E3
:10038000022080F314883FBCAE4662B600BDC04672
:10039000000000009C1000207047C046EFF3098069
:1003A0000D4B1A6820381060F0C044464D46564642
:1003B0005F46F0C008B500F05DF80CBC1168086835
:1003C0001030F0C8A046A946B246BB4680F3098863
:1003D0002038F0C81847C0469C10002072B6FEE7CF
:1003E00010B58024031F64041C60043B196003499A
:1003F000043B1960143B40381A6010BDDD03000057
:1004000010B50A4C0A4A236A1A40C0231B0413433E
:10041000236200F061F80022064B1A602369103253
:1004200013432361FFF7A2FF72B6FEE700ED00E081
:10043000FFFF00FF981000208022044B52055A60F5
:1004400040BFBFF34F8FBFF36F8F704700ED00E0E9
:1004500072B6024A13680133136070479810002087
:10046000034A1368013B1360002B00D162B670474A
:100470009810002010B50024EFF31083002B06D154
:1004800072B601F0B3F8002C00D162B610BD0124A1
:10049000F7E7C04600230D4A10B513600C4A00244C
:1004A0001360EFF31083002B0DD172B600F0DEFE67
:1004B000002804D08022074B52055A6040BF002C10
:1004C00000D162B610BD0124F0E7C0460011014022
:1004D0004011014000ED00E010B5002001F0E8FC03
:1004E000A12220210B4BD2009950C1210122C4200E
:1004F00089005A50084980000A601A60074B084971
:100500001A581140C02212020A431A508022920245
:100510001A6010BD001001400810014000E100E029
:10052000FF00FFFF70B5050072B6294B294AD45869
:1005300001F08AF900283AD0274B2A009D4245D87D
:10054000C220A8260125A31822491B021B0A8000ED
:10055000F6000D508B510026204B1E60C1238026D3
:100560009B007602CE50BFF34F8F002A21D080210E
:100570001B48490020BF4358002BFBD08020C221DC
:100580000025144B4002890058501149585815490C
:100590000D60C121013589005D50844211D8001BD6
:1005A000904200D91000002801D000F057FE62B63A
:1005B00070BD0E5006480B4E08583260CD50844234
:1005C000F5D980235B049C466044E8E71A00B7E74E
:1005D0000405000000100140FDFFFF004011014034
:1005E00000E100E00011014070B506000D1E28D0AA
:1005F00048434D30FFF744FE04004C30002C25D01A
:100600002060E6632564FFF723FF216CE36B22681B
:100610004B43D018606000205B1AD318E3600123BD
:10062000A06320005B426364A260A3641030FFF704
:1006300055FE20002430FFF751FEFFF711FF200088
:1006400070BD4C20FFF71CFE041ED9D10020F7E737
:10065000F0B5CE46474604001D00002380B585B0A6
:10066000019299468846FFF7F3FEA36BE26B0027E1
:1006700093427ED3022D00D152E1019B002B00D189
:100680006DE1002F00D1E9E0FFF7EAFE00F0D8FDB0
:10069000FFF7DEFE636C013300D13EE1A36C013352
:1006A00000D1DFE0FFF7DCFE01A902A801F09AF813
:1006B000002800D0E1E0FFF7CBFEA36BE26B934292
:1006C00000D173E0FFF7CCFEFFF7C2FEA36C002B56
:1006D0001BDD636A002B18D02700243708E0A36CC9
:1006E000013BA364A36C002B0FDD636A002B0CD0CD
:1006F000380001F01BF80028F1D001F09FF8A36C3E
:10070000013BA364A36C002BEFDC01235B42A364D9
:10071000FFF7A6FEFFF79CFE636C002B1BDD236931
:10072000002B18D02600103608E0636C013B636490
:10073000636C002B0FDD2369002B0CD0300000F020
:10074000F5FF0028F1D001F079F8636C013B636498
:10075000636C002BEFDC01235B426364FFF780FED8
:1007600000F020FE0127FFF773FEA36BE26B9342BC
:1007700080D2226C002A00D0F5E02568002D00D13F
:1007800003E1A36B0133A363636A002B06D020004F
:10079000243000F0CBFF012800D104E1FFF760FE18
:1007A000012005B00CBC90469946F0BD26001036DD
:1007B000FFF756FE0199300000F04EFFFFF748FEAC
:1007C000A36C002B1BDD636A002B18D02700243795
:1007D00008E0A36C013BA364A36C002B0FDD636AEC
:1007E000002B0CD0380000F0A1FF0028F1D001F060
:1007F00025F8A36C013BA364A36C002BEFDC012361
:100800005B42A364FFF72CFEFFF722FE636C002B14
:1008100006DC15E0636C013B6364636C002B0FDD49
:100820002369002B0CD0300000F080FF0028F1D0AD
:1008300001F004F8636C013B6364636C002BEFDC34
:1008400001235B426364FFF70BFE00F0ABFD002861
:1008500000D087E7FFF7F0FD012784E702A800F04A
:10086000B5FF11E74B46A364FFF7FAFD01A902A803
:1008700000F0B8FF002800D11DE7FFF7E9FDA36CE9
:10088000002B1BDD636A002B18D02500243508E0FF
:10089000A36C013BA364A36C002B0FDD636A002BE8
:1008A0000CD0280000F042FF0028F1D000F0C6FF75
:1008B000A36C013BA364A36C002BEFDC01235B4220
:1008C000A364FFF7CDFDFFF7C3FD636C002B1BDDB9
:1008D0002369002B18D02500103508E0636C013B1C
:1008E0006364636C002B0FDD2369002B0CD02800A0
:1008F00000F01CFF0028F1D000F0A0FF636C013B6A
:100900006364636C002BEFDC01235B426364FFF7DD
:10091000A7FD00F047FD002043E74B466364BDE6BA
:10092000226C002A00D128E74146E06801F066FF0A
:10093000236CE2685B422168D218E260914206D9DA
:10094000626894466344E360022D00D019E7A36B0C
:10095000002B00D115E7A36B013BA36311E7FFF761
:100960007FFD00201DE74146002D1FD1A06801F04A
:1009700045FF226CA368944662686344A360934277
:1009800000D2FEE62368A360FBE6606800F0B4FFD7
:10099000A36B65600133A363636A002B00D0F6E6A6
:1009A000002800D1FAE6FFF747FDF7E6E06801F01E
:1009B00025FF236CE2685B422168D218E2608A421C
:1009C000C2D2BDE7F8B5040017001E000025EFF302
:1009D0001083002B0BD172B6A36BE26B93420BD347
:1009E000022E2AD00020002D00D162B6F8BDA36BE4
:1009F000E26B01259342F3D2226C002A0DD12668C6
:100A0000002E50D0A36B0133A363A36C01332FD00E
:100A1000A36C0133A3640120E5E7002E37D1A06861
:100A200001F0ECFE226CA368944662686344A36004
:100A30009342E7D32368A360E4E7226C002ADED068
:100A4000E06801F0DBFE236CE2685B422168D218AB
:100A5000E2608A4205D2626894466344E360022EF3
:100A6000D0D1A36B002BCDD0A36B013BA363C9E70F
:100A7000636A002BCFD02000243000F057FE0028FE
:100A8000C9D0002FC7D0012301203B60ABE7E0684D
:100A900001F0B4FE236CE2685B422168D218E26088
:100AA0008A42DCD2D7E7606800F026FF6660A9E7DB
:100AB000F0B5C646040000B584B01E008846019219
:100AC000FFF7C6FCA36B00270025002B78D1019B04
:100AD000002B00D160E1002F00D1F2E0FFF7C0FC55
:100AE00000F0AEFBFFF7B4FC636C013300D1ECE027
:100AF000A36C013300D1EDE0FFF7B2FC01A902A81D
:100B000000F070FE002800D0EEE0FFF7A1FCA36B20
:100B1000002B7AD0FFF7A4FCFFF79AFCA36C002B04
:100B20001BDD636A002B18D02700243708E0A36C74
:100B3000013BA364A36C002B0FDD636A002B0CD078
:100B4000380000F0F3FD0028F1D000F077FEA36C30
:100B5000013BA364A36C002BEFDC01235B42A36485
:100B6000FFF77EFCFFF774FC636C002B1BDD236931
:100B7000002B18D02700103708E0636C013B63643A
:100B8000636C002B0FDD2369002B0CD0380000F0C4
:100B9000CDFD0028F1D000F051FE636C013B636491
:100BA000636C002BEFDC01235B426364FFF758FCAE
:100BB00000F0F8FB0127FFF74BFCA36B002B86D05E
:100BC000226CE568002A08D06368A918E1609942A0
:100BD00000D3F0E0404601F011FE002E00D0E2E02C
:100BE000A36B013BA3632368002B00D1EDE02369D5
:100BF000002B00D1DBE02000103000F097FD012831
:100C000000D0D4E0FFF718FCD1E0FFF729FC2368FF
:100C1000002B00D1B8E0270024370199380000F0FC
:100C20001BFDFFF715FCA36C002B06DC15E0A36C85
:100C3000013BA364A36C002B0FDD636A002B0CD077
:100C4000380000F073FD0028F1D000F0F7FDA36C30
:100C5000013BA364A36C002BEFDC01235B42A36484
:100C6000FFF7FEFBFFF7F4FB636C002B1BDD236932
:100C7000002B18D02700103708E0636C013B636439
:100C8000636C002B0FDD2369002B0CD0380000F0C3
:100C90004DFD0028F1D000F0D1FD636C013B636491
:100CA000636C002BEFDC01235B426364FFF7D8FB2E
:100CB00000F078FB002800D07CE7FFF7BDFB0127A0
:100CC00079E702A800F082FD08E76564A36C0133B0
:100CD00000D011E7A564FFF7C3FB01A902A800F04B
:100CE00081FD002800D110E7FFF7B2FBA36C002BB9
:100CF0001BDD636A002B18D02500243508E0A36CA7
:100D0000013BA364A36C002B0FDD636A002B0CD0A6
:100D1000280000F00BFD0028F1D000F08FFDA36C3F
:100D2000013BA364A36C002BEFDC01235B42A364B3
:100D3000FFF796FBFFF78CFB636C002B1BDD236931
:100D4000002B18D02500103508E0636C013B63646C
:100D5000636C002B0FDD2369002B0CD0280000F002
:100D6000E5FC0028F1D000F069FD636C013B636491
:100D7000636C002BEFDC01235B426364FFF770FBC5
:100D800000F010FB00200AE0FFF762FB606800F053
:100D90007BFDFFF765FB3EE7FFF762FB002004B039
:100DA00004BC9046F0BD636AE560002B06D1FFF7F6
:100DB00057FB0120F3E72168E1600BE720002430B6
:100DC00000F0B4FC0028F2D01CE700F0BFFD60602A
:100DD0000DE7C046074B1A68002A03D09A68002A1C
:100DE00006D070470022D20099509B185860F8E74F
:100DF0000132F8E72812002070B504000D00FFF75B
:100E000027FB636C01335CD0A36C013356D0FFF732
:100E100027FBA36B002B04D120002900243000F015
:100E200055FCFFF715FBA36C002B1BDD636A002B41
:100E300018D02500243508E0A36C013BA364A36C03
:100E4000002B0FDD636A002B0CD0280000F06EFC35
:100E50000028F1D000F0F2FCA36C013BA364A36C6A
:100E6000002BEFDC01235B42A364FFF7F9FAFFF7E5
:100E7000EFFA636C002B1BDD2369002B18D02500D3
:100E8000103508E0636C013B6364636C002B0FDD7D
:100E90002369002B0CD0280000F048FC0028F1D07A
:100EA00000F0CCFC636C013B6364636C002BEFDCF3
:100EB00001235B426364FFF7D3FA70BD0023A36490
:100EC000A5E7002363649FE7F0B54F464646DE463C
:100ED000C0B50A9E80460F0015009946002E00D12D
:100EE0008FE04820FFF7CCF9041E00D192E0AD005E
:100EF0002A000663A5213000FFF788F9236B043D23
:100F00009C46072365443A789D432D33E2543B7851
:100F1000002B08D035237A78E2547B78002B02D05E
:100F20003623BA78E25400223723089EE254022E78
:100F30005AD80023271DE3633800E662A6639B4668
:100F4000FFF7D8F920001830FFF7D4F903239B1BD3
:100F5000A3615B465A46236444332461646241467C
:100F6000E25428004A46FFF73BFA099B2060002B19
:100F700000D01C60FFF76CFA3C4A3D4E1368013309
:100F800013603368002B34D03A4B98461B68002B13
:100F900005D13368089ADB6A9A4200D33460364D33
:100FA000364A136801331360354AE36A11688B428D
:100FB00018D89800C018800028183900FFF79EF94B
:100FC000FFF74EFA43461B680124002B04D0336818
:100FD000089ADB6A9A4209D820001CBC90469946C0
:100FE000A346F0BD1360E4E70226A2E7FFF724FA68
:100FF000F2E734601368204D012B11D01D4B984649
:10100000CEE79000FFF73CF9061E00D069E7012407
:101010006442E1E701243000FFF75EF96442DBE758
:101020002800FFF75BF928001430FFF757F9280074
:101030002830FFF753F9134B99461800FFF74EF984
:10104000114B18009846FFF749F91048FFF746F989
:101050000F48FFF743F90F48FFF740F94A460E4B98
:101060001A6042460D4B1A60C8E7C046E4100020E3
:101070009C10002040110020A8100020F01000203B
:10108000F8100020FC100020101100202C1100206E
:101090005811002044110020A0100020A4100020AE
:1010A000F8B5CE464746F02080B5FFF7E9F8051EB3
:1010B00070D04820FFF7E4F8041E00D178E0A521A5
:1010C0000563F0222800FFF7A1F807234922266BC9
:1010D0000025EC369E432D33E254103398464246A9
:1010E0000F3BE2544C220133E254271D0133E554F7
:1010F0003800E562A563E563FFF7FCF820001830CF
:10110000FFF7F8F80323A3614346002224616462D9
:1011100025643B49E5543000FFF762F9394B206004
:101120001C60FFF795F9384A136801331360374B99
:1011300098461B68002B33D0354E3368002B06D100
:1011400043461B68DB6A002B01D143461C60314DCE
:10115000314A136801331360304AE36A11688B42E5
:101160001CD89800C018800028183900FFF7C6F86E
:10117000FFF776F93368002B01D043461B6800F077
:10118000F1FB012806D172B60022254B30601A60AF
:10119000FFF736F90CBC90469946F8BD1360E0E7BE
:1011A00043461C6013681B4D012B05D0184ECFE73A
:1011B0002800FFF791F8EDE72800FFF78FF82800E7
:1011C0001430FFF78BF828002830FFF787F8154B0D
:1011D00099461800FFF782F8134E3000FFF77EF8AB
:1011E0001248FFF77BF81248FFF778F81148FFF72D
:1011F00075F84A46104B1A60104B1E60044EA7E764
:101200000115000024110020E41000209C10002093
:1012100040110020A8100020F0100020F81000203D
:101220006C110020FC100020101100202C11002057
:101230005811002044110020A0100020A41000200C
:10124000024A1368013313607047C046EC10002057
:10125000014B18687047C0466C110020024A1368A1
:10126000181810607047C0466C110020F8B5DE46B3
:1012700057464E464546E0B53F4B1B68002B48D1CC
:101280003E4B1A6801321A601F68002F54D03C4B45
:101290009B465B4600221B6891469F423FD3394BD9
:1012A000394E9846394B9A4633681B68002B2CD030
:1012B0003368DB68DC6863689F425AD3251D2800C9
:1012C000FFF740F8A36A002B03D020001830FFF787
:1012D00039F84246E36A1268934201D942461360E4
:1012E0009800C0182A4B80009C4629006044FFF7F4
:1012F00005F853461B68E26ADB6A9A42D4D301239D
:10130000994633681B68002BD2D15A46013B1360C3
:1013100005E0204A136801331360002399461E4BF1
:101320001B68002B01D00123994648463CBC9046DF
:101330009946A246AB46F8BD134E184B3268196861
:1013400031601A60164A13680133136033681B68F2
:10135000002B06D10A4B9B4601235A465B42136081
:1013600097E73368064ADB689346DB685B6813607F
:101370008FE75A461360D2E7EC1000206C11002072
:1013800060000020F8100020A01000209C10002019
:10139000A8100020E810002070110020A4100020E8
:1013A00028110020F0B5D6464F464646C0B5FFF797
:1013B0004FF82E4B1A68013A1A601B68002B43D174
:1013C0002B4B1B68002B3FD02A4B2B4E9A462B4BA6
:1013D0002B4F99462B4B98461BE0F368DC682000A6
:1013E000251D1830FEF7AEFF2800FEF7ABFFE36ABD
:1013F0003A68934200D93B609800C0188000484486
:101400002900FEF77BFF43461B68E26ADB6A9A42CB
:1014100023D23368002BE0D11B4C2368002B0FD064
:101420002368002B0CD00125FFF720FF002801D0F6
:1014300053461D602368013B23602368002BF3D1D2
:1014400053461B68012B0CD00024FFF709F820003D
:101450001CBC90469946A246F0BD0123524613603B
:10146000D7E7FEF7E9FF0124EFE7C046EC100020C4
:10147000E4100020701100202C110020A810002082
:10148000F81000209C100020E810002070B5002803
:1014900002D1FEF7D1FF70BD134A144E1368144DEC
:1014A000013313603468041928680430FEF74AFFDA
:1014B0002B685C6033689C420FD30E4B1868296818
:1014C0000431FEF727FF0C4B1A68944200D21C60CF
:1014D000FFF768FF0028DED1DBE7084B18682968B2
:1014E0000431FEF717FFF3E7EC1000206C11002029
:1014F0009C100020A010002060000020A4100020FC
:10150000F8B557464E46DE464546304BE0B5984660
:101510002F4B304C9946304B304F9A46304B314E22
:101520009B4607E023683D6801332360FFF73AFFDD
:10153000002D2CD13368002BF4D14B461B68012BB6
:101540003DD9FEF779FF53461B68DB6A002BF1D1CA
:101550004B461B68012BEDD85B46234A1B6812687B
:101560009B1A012BE6D923680133236053461B687D
:10157000DB6A002B08D15B4618681B4B1B68C01A3E
:10158000012801D9FEF7CEFFFFF70CFFD2E7FEF7E7
:101590005FFFFB68DD68281DFEF7D4FE4346424628
:1015A0001B68013B13603368013B3360FEF758FF53
:1015B000286BFEF791FE2800FEF78EFEBAE7534631
:1015C0001B68DB6A002BC7D0B4E7C046E4100020DC
:1015D000A8100020EC1000209C10002058110020C2
:1015E00060000020F41000206C110020154B1B68D7
:1015F000002B1FD1144A15481360154A116803E0E7
:101600001368013B136011688B005B189B00C35883
:10161000002BF5D0126893009B189B00C1184A68F4
:1016200008335268C0184A60824207D0D268094B1A
:101630001A6070470122044B1A60FAE752684A6048
:10164000F4E7C046EC10002070110020A810002024
:10165000F81000209C10002070B50D00154C21687A
:101660001831FEF757FE20680430FEF76BFE6B1C46
:101670001AD0114B1A68AD1822681B6855609D423C
:101680000BD30E4B186821680431FEF743FE0C4B58
:101690001A68954200D21D6070BD0A4B1868216817
:1016A0000431FEF737FEF7E7216807480431FEF7FB
:1016B00025FEF1E79C1000206C110020A0100020F6
:1016C00060000020A41000204411002070B50E001E
:1016D000114D29681831FEF711FE28680430FEF715
:1016E00031FE0E4B1C682A681B68A41954609C428A
:1016F0000BD30B4B186829680431FEF70BFE094B1E
:101700001A68944200D21C6070BD074B18682968A3
:101710000431FEF7FFFDF7E79C1000206C1100205C
:10172000A010002060000020A410002070B5C36845
:10173000DC68250018352800FEF704FE1B4B1B68EB
:10174000002B2BD1251D2800FEF7FCFD184AE36A6B
:1017500011688B4227D89800C018164B80001818C3
:101760002900FEF7CBFD144BE26A1B680020DB6A00
:101770009A4203D90122114B01301A60104B1A68AA
:101780001268002A06D01B68DB68DB685A680D4BBC
:101790001A6070BD0B4B013A1A60FAE729000A483B
:1017A000FEF7ACFDDFE71360D5E7C046EC10002084
:1017B000F8100020A81000209C10002070110020BC
:1017C000A0100020600000202C110020034B1B689B
:1017D0000360034B1B6843607047C046281100201C
:1017E0006C110020F8B50E000400FEF731FE11491F
:1017F00033680A68581C1AD00F4825688446006868
:101800006768854202D00125BA420CD2D01B01255F
:10181000834208D99B1ADB193360634600251B6895
:1018200023600B686360FEF71BFE2800F8BD0025EF
:10183000F9E7C0466C110020281100200122014B5D
:101840001A60704770110020054B00201B68002BA8
:1018500004D1044B186843425841C0B27047C04697
:101860002C11002070110020054B01201B68002B5B
:1018700004D0044B18684342584140007047C046AA
:1018800040110020EC100020F8B5041E18D0174DB0
:10189000C26A2B68DB6A9A4212D28369002B04DB8E
:1018A0002B68D96A03235B1A836193009B18104E3F
:1018B0009B006269F3189A4203D02B68DB6AE362EB
:1018C000F8BD271D3800FEF73DFD2B68094ADB6A8D
:1018D0001168E3628B4200D913609800C018800041
:1018E00030183900FEF70AFDEAE7C0469C100020D8
:1018F000A8100020F810002070B5041E08D0C36B9B
:10190000C26A816B013BC3638A4201D0002B01D0C4
:10191000002070BD051D2800FEF714FD0323A06BF9
:101920001B1AA361074BE0621A68904200D9186045
:1019300083001818044B800018182900FEF7DEFCFD
:101940000120E6E7F8100020A8100020044B1A68D8
:10195000002A03D01968CA6B0132CA63186870473D
:101960009C10002070B584B0FEF772FD184C2368FF
:10197000002B15D0FEF774FD2368002B0ED000233A
:1019800003930293134B50220193022312490093B5
:1019900012480023FFF798FA04B070BD0020FBE75F
:1019A0000F4E3000FEF79AFC0E4D2800FEF796FC15
:1019B0000D4B00221E600D4B102120201D60FEF7F4
:1019C00013FE20600028D5D00949FFF703FAD1E7BC
:1019D000A8110020AC11002034280000F51A0000E6
:1019E0007C1100209011002074110020781100203B
:1019F0002C280000F8B5454657464E46DE46804640
:101A0000E0B50D0017001E0000291ED02820FEF7AB
:101A100037FC041E19D0FEF71BFD1B4B99461B68B3
:101A2000002B14D0FEF71CFD434623600A9BA561E2
:101A3000E76126626362201DFEF75CFC20003CBC6F
:101A400090469946A246AB46F8BD0024F6E70F4BF8
:101A50009B461800FEF742FC0D4B18009A46FEF715
:101A60003DFC5A460B4B10211A6052460A4B20206F
:101A70001A600022FEF7B8FD4B4618600028D1D04E
:101A80000649FFF7A7F9CDE7A81100207C11002037
:101A90009011002074110020781100202C280000E3
:101AA00070B5134D84B02C681E00002C1ED0009120
:101AB0000192029005290ADCFFF7D6FE02280ED01B
:101AC0002868002300226946FEF7C2FD05E00023D6
:101AD000320069462000FEF775FF04B070BD28682B
:101AE0000023089A6946FEF7B3FDF6E70020F4E705
:101AF000A8110020F0B55746DE4645464E46B34B8A
:101B0000E0B59A46B24BB34F9B46B34D8FB03B689E
:101B10001A68002A00D191E0DB681C68FFF790FB8F
:101B2000FFF796FB53461B68039083424FD85246FB
:101B300003001060844200D8B0E0E11A2868FFF783
:101B40005BF9FFF72FFC002800D18EE00023002274
:101B500006A92868FEF7ACFF0028D8D0069B03939F
:101B6000002B5DDB089C6369002B02D0201DFEF773
:101B7000E9FBFFF76DFB53461B6802000390984298
:101B800043D353461A60069B092BDFD801229A40A3
:101B9000130084229200134200D0C4E04A3AFF3A74
:101BA0001A4200D0D0E09B06D0D52000FEF794FB6F
:101BB000CCE7DB68DC681A68261D30009046FEF72B
:101BC000C1FB636A20009847E369012B50D03B6852
:101BD0001A68002AEDD15A4612683A605A461360D4
:101BE0005346039A1A60FFF7DDFBAFE7DB68DE6858
:101BF0001A68331D180090469946FEF7A3FB736AD6
:101C000030009847F369012B3DD03B681A68002AE1
:101C1000ECD15A4612683A605A461360039AB0E70C
:101C2000099B0393089B03990493079B04980593CE
:101C30009847069B0393002B88DB93E7FFF700FB95
:101C4000FFF706FB53461B68020003908342BED891
:101C5000534600241A6013002868E11AFFF7CCF8F5
:101C6000FFF7A0FB002800D070E7FEF7E5FB6DE76B
:101C7000A3694344984526D26360246131003868E3
:101C8000FEF748FBA3E7B369434498452CD2736041
:101C9000366149463868FEF73DFBB6E7FFF782FB41
:101CA0003B68DB68DB689846042343441800994688
:101CB000FEF748FB4346DB69012B26D043464046EE
:101CC0005B6A984742E72B68002B80D000230A9379
:101CD00043460C940B93FFF7C7FD002300220AA98B
:101CE0002868FEF7B5FC72E72B68002B8DD0002327
:101CF0000A9343460C960B93FFF7B6FD0023002290
:101D00000AA92868FEF7A4FC7FE7434641469B6981
:101D10000398E2184A600961824234D9494638681A
:101D2000FEF7F8FACAE7079B0399A3615A186260A5
:101D300024618A423FD8002B00D107E75B46211D72
:101D40001868FEF7E7FA01E7079BA169039E5A1896
:101D500062602461B2422AD8F31A9942EED8636ACB
:101D600020009847E369012B00D0EFE6A169079BAB
:101D70008C46039363441A00002300210093200043
:101D8000FFF78EFEE2E6061BB34219D82B68002B44
:101D900094D000230A9343460B940C93FFF764FD01
:101DA000002300220AA92868FEF752FC86E7B34206
:101DB00001D99342D3D9211D3868FEF7ABFAC5E6A5
:101DC0005B4649461868FEF7A5FA77E7A41100209C
:101DD0007811002074110020A8110020A022A12356
:101DE0008021D205DB008903D1508021C903D15065
:101DF00080210904D15080214904D1507047C04648
:101E0000A02210B5074BD205D158074B185C01230F
:101E100083401C00A1208C430B400449C000145097
:101E2000535010BD040500003C2800000C050000C4
:101E3000A02303220B49DB055A5004315A500A49AA
:101E40005A5004315A50A1228021D200890399505E
:101E50008021C903995080210904995080214904A7
:101E600099507047540700005C07000010B50E4CF5
:101E700085202378002B00D010BD6360A360236110
:101E8000E3600A4B1B68DB0708D5A32280210123EE
:101E9000D200C9058B5000202370EDE703210020FC
:101EA00000F080F8F1E7C046B011002000E100E04A
:101EB00070B51B4D0400AB78002B0ED0002802D06B
:101EC0004368012098470020FEF7C8F9EB6800201E
:101ED0000133EB60FEF7CAF970BD0020FEF7BEF9D2
:101EE000002C0DD02A69002A08D0944208D0130093
:101EF00001E09C4204D01B68002BFAD122602C61C7
:101F0000EB68002BE2D1074A02211360C123053A96
:101F10009B00FF3AD1500122034B1A60D6E7C0461E
:101F2000B0110020040100400800004010B51A4B19
:101F30001A68002A14D0002280211A60C2220123CC
:101F4000164C9200C9058B506370A368002B07D014
:101F50001A6800205B68A2609847A368002BF7D13D
:101F60000F4B1A68002A15D000221A60C223802263
:101F700002219B00D205D1500123084CA370236994
:101F8000002B07D01A6801205B68226198472369FB
:101F9000002BF7D110BDC04600010040B011002059
:101FA00004010040F0B500281EDB1B4A03249446C0
:101FB000FF2217008308C026C0B20440E400890154
:101FC000A7400A40A2409B006344B6009D59BD4310
:101FD0002A439A511F23C02118401E3B83400E4ABA
:101FE000490053501360F0BDFF240C4A032594466A
:101FF00022000F23C0B20540ED008901AA400C4029
:10200000AC400340083B9B089B006344DE69964359
:102010003443DC61DEE7C04600E100E000ED00E0B3
:10202000F0B5DE4657464E4645460021E0B5C54A66
:1020300087B0039113680024012B00D1B4E1C24B97
:102040001A68012A00D1A3E1C04B1A68012A00D105
:1020500092E1BF4B1A68012A00D181E1BD4B1A6899
:10206000012A00D161E123071CD0BB4BA22798466F
:102070000323012600259946FF0026420ED0B74AC9
:10208000AB009A18D059D1594246D358002B05D0ED
:102090004A46090CC0041140C00E9847013576002D
:1020A000042DEAD1002C06DB07B03CBC90469946D3
:1020B000A246AB46F0BD00230493013B0593C13318
:1020C0009A46B93B9B464023A34AD1564B1C2DD080
:1020D000C9B2534608005A46984301230A40934028
:1020E000C60805AA925D134220D09B4A9A4C12184A
:1020F00020321278890952B29200A258002A00D1E7
:10210000F1E0032900D1F1E0A025ED05AC46E02582
:1021100087006744ED007D5903ACA65DAD03AD0FAC
:10212000334200D0B9E0032D00D187E102230093B0
:10213000013B0326994600254123874AD1564B1C73
:102140002FD0C9B2534608005A46984301230A408B
:102150009340C70805AAD25D134222D07E4A7E4C26
:10216000121820321278890952B29200A2580192B4
:10217000002A00D1C8E0032900D1C8E0A024E4056A
:10218000A04682009044E0224446D200A25803AC0C
:10219000E75D9203920F3B4200D08FE0032A00D10B
:1021A00037E142236C4AD1564B1C2DD0C9B253465D
:1021B00008005A46984301230A409340C70805AADD
:1021C000D25D134220D0644A634C12182032127838
:1021D000890952B29200A658002E00D18CE0032942
:1021E00000D18BE0A024E405A44682009444E022C0
:1021F0006446D200A25803ACE75D9203920F3B42C3
:1022000068D1032A00D1EFE04323534AD1564B1C37
:102210002AD0C9B2534608005E46984301230E40B7
:10222000B340C20805AEB65C33421DD04A4C8909A2
:1022300026182036367876B2B600A659002E6CD015
:1022400003296CD0A024E405A4468700BC44E02701
:102250006446FF00E75903ACA25CBF03BF0F134203
:1022600012D1032F00D1A8E0002D00D11CE7A2233A
:10227000A022DB00D205D358039A9A4200D113E77B
:102280000393049B05931EE7022FEDD1032900D190
:10229000EEE0002EE8D0B047E6E7022D00D045E79B
:1022A000032900D1E7E002230093013B032699466E
:1022B0000025002A00D13FE790473DE7022A00D0E1
:1022C0006FE7032900D1DAE0019B002B00D168E71A
:1022D000984766E7022A97D1032900D1C5E0002E6E
:1022E00092D0B04790E7032900D01FE704ACA519AE
:1022F0002F781F432F7007E7032985D104AAD2192D
:1023000014781C4314706DE7032900D049E704AA30
:10231000D21914781C43147030E70329A4D104ACFB
:10232000A7183C781C433C708CE700221A6080237D
:102330001B061C43A022A223D205DB00D358039323
:1023400091E6C04600610040046100400861004021
:102350000C6100407C610040C4110020006000401E
:10236000C12248499200895808220A4200D175E6E4
:1023700000211443196071E6C12242499200895834
:1023800004220A4200D164E600211443196060E689
:10239000C1223C499200895802220A4200D153E6E8
:1023A0000021144319604FE6C120364C80002458A8
:1023B0001C4000D143E6116041E6032900D068E7E4
:1023C0008027BF02E0236246DB00D5582E4A6446D0
:1023D00015406246D550D2584D463A43E250002E41
:1023E00000D144E7B0473FE7032900D077E78027D3
:1023F000BF02E0236246DB00D558234A64461540FD
:102400006246D550D2584D463A43E250009B994619
:1024100065E7032900D057E78027BF02E023424643
:102420004446DB00D258184D2A40E250E2584D464F
:102430003A43E250009B0096994645E7032900D0B5
:1024400031E780239B029C46E0236446DB00FE5874
:102450000D4D2E40FE50FD5804262543FD5003230C
:102460000093013B9946012523E7C027BF02C0E73F
:10247000C027BF02A6E7C0239B029C46E4E7C02713
:10248000BF02CBE700600040FFFFFCFFC12310B597
:10249000614A9B00D35884B09B054FD592235B00C3
:1024A000D15800294AD00021D1508121E53389003B
:1024B000FF33D150594B997E002901D10131516030
:1024C000022269460A7090215348C900425842507E
:1024D00069460392DA7D68460A72DA6819680192E1
:1024E0000022DA751A765B6898478E214A4A4900BD
:1024F0005358002B0FD0494B9C8A987D84424FD271
:1025000000205050998A9868405C998A013189B2BC
:102510009982434BD050A2233F4A5B00D1580029F7
:102520000AD00021D1503D4B997E002901D00121D4
:102530001160DA7D002A42D104B010BDC123364AB1
:102540009B00D3585B07D0D5842149005358002BFA
:10255000CBD0324BD87D00283ED15050A321C900AA
:1025600052585A7E8242C0D11A7E002A42D19A7EA7
:10257000002A02D10121284A51608120C222264925
:10258000800092008850002268460121DA755A7E48
:1025900001700272DA68196801925B689847A4E7D3
:1025A000002454500028B6D06A46147010729A68FD
:1025B0009C75196801925B6868469847ABE70022F2
:1025C00068460121DA755A7E01700272DA6819686C
:1025D00001925B689847AFE700205050A320C000ED
:1025E000597E1258D86842545A7ED87D0132D2B2F0
:1025F0005A76B6E7DA751A69D968DA6000226C464D
:10260000587E1A765A76013220720191227019682A
:1026100068465B68984768E7002000400C1200207D
:102620001C05000010B50120FFF7EAFB10BDC046F5
:1026300010B50020FFF7E4FBC820FEF727FFF8E7FE
:1026400030B585B0FFF712FC00282ED1FFF7F0FB64
:10265000FFF7C4FB164B0024019382220223520091
:10266000009314490023039402941348FEF72CFCB2
:10267000FA21124B01228900009311480023FFF731
:10268000B9F9104B05001860FEF7E2FD00230200C7
:10269000012100942800FFF703FA04210A4A136974
:1026A0000B431361FEF7FCFCFEE7FDF7B9FDCDE738
:1026B0003C120020402800003126000025260000A2
:1026C000482800003812002000ED00E003210A48ED
:1026D00002680A430260094802680A430260084926
:1026E000084A094B9B1A03DD043BC858D050FBDC59
:1026F00000F012F8FDF714FD2405004054050040D9
:102700005C2800000000002070000020FEE7FEE7CB
:10271000FEE7FEE7FEE7FEE72E4B1B78012B00D01D
:1027200070472D4B1B681B07FAD1F0222B4B1B68FF
:10273000134027D12A4B1B6813422BD0264B1B6812
:102740001B07EDD1F022254B1B681340402B2DD0E9
:10275000F022224B1B681340A02B01D0D02BDFD1DD
:10276000F0231F4A12681A42DAD11E4A1368012B5D
:1027700004D01D4B13601368012BFCD1C0221B4BEE
:102780001A60CDE7102B01D0302BDBD1144B1B6826
:102790001342D7D1164A174B1A608022164B1202E9
:1027A0001A600C4B1B78012BC8D0B9E70C4B1B6887
:1027B0001342CDD1C12380220121DB00D205D150AB
:1027C000044B1B78012BABD1034B1B681B07BFD0FD
:1027D000A6E7C046E00F00F0E40F00F0E80F00F0BD
:1027E000EC0F00F000EC06407593000014EC06407E
:1027F000DFFF07C004050040186C0040002310B53F
:102800009A4200D110BDCC5CC4540133F8E70000FB
:10281000F8B5C046F8BC08BC9E467047F8B5C0463F
:10282000F8BC08BC9E46704700000020546D7251F1
:1028300000000000546D72205376630015161718BF
:102840004C454430000000004C454431000000007D
:042850000000000084
:08285400CCD8FF7F0100000059
:10285C00000000000000000000000000000000006C
:10286C00000000000000000000000000000000005C
:10287C00000000000000000000000000000000004C
:10288C00000000000000000000000000000000003C
:10289C00000000000000000000000000000000002C
:1028AC00000000000000000000000000000000001C
:1028BC00FFFFFFFFE9000000C10000000000000066
:04000003000026CD06
:00000001FF
